:020000040800F2
:1000000020350120E9020008450E0008B506000869
:10001000410E000821050008DB1400080000000064
:10002000000000000000000000000000290200089D
:100030002505000800000000850200087111000875
:100040000303000803030008030300080303000878
:100050000303000803030008030300080303000868
:100060000303000803030008030300080303000858
:100070000303000803030008030300080303000848
:100080000303000803030008030300080303000838
:100090000303000803030008030300080303000828
:1000A0000303000803030008030300080303000818
:1000B0000303000803030008030300080303000808
:1000C00003030008030300080303000803030008F8
:1000D00003030008F51300080303000803030008E6
:1000E00003030008030300080303000803030008D8
:1000F00003030008030300080303000803030008C8
:1001000003030008030300080303000803030008B7
:1001100003030008030300080303000803030008A7
:100120000303000803030008030300080303000897
:100130000303000803030008030300080303000887
:100140000303000803030008030300080303000877
:100150000303000803030008030300080303000867
:100160000303000803030008030300080303000857
:100170000303000803030008030300080303000847
:10018000030300080303000800F002F800F03CF845
:100190000AA090E8000C82448344AAF10107DA45E2
:1001A00001D100F031F8AFF2090EBAE80F0013F0F8
:1001B000010F18BFFB1A43F00103184740D4020097
:1001C00060D40200103A24BF78C878C1FAD8520728
:1001D00024BF30C830C144BF04680C6070470000C1
:1001E0000023002400250026103A28BF78C1FBD840
:1001F000520728BF30C148BF0B6070471FB503F0DE
:1002000029FB1FBD10B510BD00F05BF91146FFF7CB
:10021000F5FF01F09BFC00F079F903B4FFF7F2FF62
:1002200003BC01F05CF900002C4B19680868B0E8C9
:10023000F04F80F30988BFF36F8F4FF0000080F319
:10024000118870470000000008480068006880F3CB
:1002500008884FF0000080F3148862B661B6BFF3DF
:100260004F8FBFF36F8F00DF00BF00BF08ED00E0CE
:10027000DFF80C00016841F470010160704700BFB5
:1002800088ED00E0EFF30980BFF36F8F134B1A681E
:100290001EF0100F08BF20ED108A20E9F04F10600B
:1002A00009B44FF0500080F31188BFF34F8FBFF3B4
:1002B0006F8F02F097FD4FF0000080F3118809BCAA
:1002C00019680868B0E8F04F1EF0100F08BFB0ECD6
:1002D000108A80F30988BFF36F8F704744000020B5
:1002E000EFF3058070470000094880470948004740
:1002F000FEE7FEE7FEE7FEE7FEE7FEE7FEE7FEE7D6
:10030000FEE7FEE704480549054A064B7047000032
:10031000A511000889010008202F012020350120A7
:1003200020310120203101207047032A40F2308023
:1003300010F0030C00F0158011F8013BBCF1020F26
:10034000624498BF11F801CB00F8013B38BF11F8A7
:10035000013BA2F1040298BF00F801CB38BF00F8BE
:10036000013B11F0030300F07A80083AC0F00880E6
:1003700051F8043B083A51F804CBA0E80810F5E71F
:10038000121D5CBF51F8043B40F8043BAFF3008002
:10039000D20724BF11F8013B11F801CB48BF11F877
:1003A000012B24BF00F8013B00F801CB48BF00F847
:1003B000012B704702F0FF0343EA032242EA0242A4
:1003C00000F002B84FF000020429C0F0128010F0D3
:1003D000030C00F01B80CCF1040CBCF1020F18BF21
:1003E00000F8012BA8BF20F8022BA1EB0C0100F0B4
:1003F0000DB85FEAC17C24BF00F8012B00F8012B87
:1004000048BF00F8012B70474FF0000200B51346BB
:1004100094469646203922BFA0E80C50A0E80C5024
:10042000B1F12001BFF4F7AF090728BFA0E80C50D5
:1004300048BF0CC05DF804EB890028BF40F8042BCE
:1004400008BF704748BF20F8022B11F0804F18BF3B
:1004500000F8012B7047704770477047704710B520
:10046000203AC0F00B80B1E81850203AA0E81850AC
:10047000B1E81850A0E81850BFF4F5AF5FEA027C6D
:1004800024BFB1E81850A0E8185044BF18C918C0DC
:10049000BDE810405FEA827C24BF51F8043B40F87D
:1004A000043B08BF7047D20728BF31F8023B48BF62
:1004B00011F8012B28BF20F8023B48BF00F8012BA0
:1004C0007047754600F028F8AE4605006946534669
:1004D00020F00700854618B020B5FFF713FFBDE8F0
:1004E00020404FF000064FF000074FF000084FF09B
:1004F000000B21F00701AC46ACE8C009ACE8C0092C
:10050000ACE8C009ACE8C0098D4670470446AFF3BB
:1005100000802046FFF781FE00487047BC2E012076
:1005200000BFFEE770472DE9F04706460F469046AC
:1005300099460025444641E07A1B91B2321B90B2A5
:100540004A4600F080F97A1B91B2321990B24A46BD
:1005500000F079F93A1991B2721B90B24A4600F054
:1005600072F93A1B91B2721B90B24A4600F06BF9D5
:100570007A1991B2321990B24A4600F064F93A1BE6
:1005800091B2721990B24A4600F05DF93A1991B2EF
:10059000721990B24A4600F056F97A1991B2321B9C
:1005A00090B24A4600F04FF96D1C05FB05F004FBC4
:1005B000040108FB08F0814200DD641EA542BBDD9A
:1005C000BDE8F087F0B50A4600210023002400BFF3
:1005D0003DE0012505FA01F3156805EA03049C4294
:1005E00034D105684F000326BE40B5430560157938
:1005F0004E00B5400668354305601579012D02D0DF
:100600001579022D16D185684F000326BE40B543EB
:10061000856055794E00B5408668354385604568EC
:1006200001268E40B5434560456896798E40B6B246
:1006300035434560C5684F000326BE40B543C560DD
:10064000D5794E00B540C6683543C560491C1029B0
:10065000BFD3F0BDF0B5002300244D07ED0E02FA24
:1006600005F3CE1000F1200555F826504E07F70E81
:100670000F26BE40B543CF1000F1200646F82750A4
:10068000CE1000F1200555F8265045EA0304CE109F
:1006900000F1200545F82640F0BD02460020136910
:1006A0000B400BB1012000E00020704741837047F0
:1006B0000183704700BFFEE71CB50121102000F048
:1006C000C3FB0C20009000208DF8040003208DF85F
:1006D000050001208DF8070069460248FFF772FF08
:1006E0001CBD00000010024010B5044614B10120EA
:1006F0001949087018480078E8B104211748FFF735
:10070000CCFF20B108211548FFF7C7FF98B90A2090
:1007100001F0F0F800201049087004210F48FFF79D
:10072000BCFF08B9312010BD08210C48FFF7B5FF08
:1007300078B93220F7E704210848FFF7AEFF012817
:1007400007D108210548FFF7A8FF012801D1024978
:1007500008703020E7E7000034000020001002405D
:100760002DE9F04107460C4615461E462A2000F0AA
:1007700023FB384600F011FB284600F00EFB2B202F
:1007800000F01AFB204600F008FB304600F005FBA5
:100790002C2000F011FBBDE8F0812DE9FF4F85B062
:1007A00081468A460020039083460798A0EB0905FE
:1007B0000898A0EB0A06CDF80890CDF804A0002D0B
:1007C00001DD012705E00DB9002702E04FF0FF37FA
:1007D0006D42002E02DD4FF0010806E016B94FF021
:1007E000000802E04FF0FF387642B54201DD2C46AA
:1007F00000E03446002004901EE0019A91B2029A73
:1008000090B2129A00F01FF8039828440390B34462
:100810000398A04205DD0398001B0390029838441A
:100820000290A34504DDABEB040B0198404401901A
:100830000498401C80B20490611C04988842DCDB60
:1008400009B0BDE8F08F70B504460D4616462B463C
:10085000224629462046FFF783FF304600F09DFAE6
:1008600070BD2DE9F84305460E4617469846089C8C
:1008700033463A46314628460094FFF78EFF4346FA
:100880002A46314628460094FFF787FF43463A46FA
:10089000414628460094FFF780FF43463A463146DA
:1008A00038460094FFF779FFBDE8F8832DE9F0475B
:1008B00006460F4614461D46DDF820A0681E83B28A
:1008C000601E82B239463046FFF74AFFB8460EE056
:1008D000B14606E0504600F060FA09F101001FFA47
:1008E00080F9A145F6DB08F101001FFA80F8A84560
:1008F000EEDBBDE8F08700001CB501215F2000F0B1
:10090000A3FA48F21200009001208DF804000020A4
:100910008DF8060003208DF8050001208DF80700F2
:1009200069461148FFF74EFE48F212010E48FFF7E4
:10093000BFFE4FF48060009001208DF8040000207D
:100940008DF8060003208DF8050069460748FFF77B
:1009500039FE4FF480610548FFF7AAFE00F0B4FAB3
:10096000082000F02FFB1CBD000C024000100240CC
:1009700010B5FFF7C1FF10216148FFF797FE642013
:1009800000F0B8FF10215E48FFF792FE642000F0EF
:10099000B1FF02215A48FFF78BFE642000F0AAFF46
:1009A000112000F009FA782000F0A4FFF02000F0F8
:1009B00003FAC32000F0FAF9F02000F0FDF99620C8
:1009C00000F0F4F9362000F0F7F9282000F0EEF9F5
:1009D0003A2000F0F1F9052000F0E8F9E82000F0F5
:1009E000EBF9402000F0E2F9822000F0DFF9072067
:1009F00000F0DCF9182000F0D9F9272000F0D6F932
:100A00000A2000F0D3F9B62000F0D0F9332000F02E
:100A1000CDF9C52000F0D0F9272000F0C7F9C22099
:100A200000F0CAF9A72000F0C1F9E02000F0C4F9F5
:100A3000F02000F0BBF9012000F0B8F9062000F02A
:100A4000B5F90F2000F0B2F9122000F0AFF91D2027
:100A500000F0ACF9362000F0A9F9542000F0A6F916
:100A6000442000F0A3F90C2000F0A0F9182000F0B9
:100A70009DF9162000F09AF9132000F097F915203F
:100A800000F094F9E12000F097F9F02000F08EF9E1
:100A9000012000F08BF9052000F088F90A2000F011
:100AA00085F90B2000F082F9072000F07FF9322051
:100AB00000F07CF9442000F079F9442000F076F948
:100AC0000C2000F073F9182000F070F9172000F0E6
:100AD0006DF9132000F06AF9162000F067F9F02094
:100AE00000F06AF93C2000F061F9F02000F064F9B0
:100AF000692000F05BF9292000F05EF910BD0000CC
:100B0000000C02402DE9FF5F80468A4617469B464F
:100B10000F9D00200290CDF80080284605EBD07193
:100B2000C1F347042046E21704EB5272D21021466B
:100B3000E31704EB5373DB10A4EBC3030BB10123E6
:100B400000E000231A446A4392B20192A7F1200008
:100B5000C7B20AEB0500401E83B208EB0400401E3A
:100B600082B251464046FFF7FBFD002669E00C2D9E
:100B700007D107EB4700354901EB8000805D03900A
:100B80001BE0102D05D1324800EB0710805D03906B
:100B900013E0182D07D107EB47002E4901EB001099
:100BA000805D039009E0202D05D12B4800EB8710D4
:100BB000805D039001E0BDE8FF9F4FF000093AE03F
:100BC0001098C8B9012000FA09F00399084018B13B
:100BD000584600F0E2F802E00E9800F0DEF80298C5
:100BE000401CC0B20290029890FBF4F104FB11008B
:100BF000E8B90020029021E0012000FA09F00399F1
:100C0000084020B15A4651464046FFF71CFE08F105
:100C100001001FFA80F80098A8EB0000A04206D15E
:100C2000DDF800800AF101001FFA80FA06E009F100
:100C3000010000F0FF09B9F1080FC1DB00BF701C13
:100C400086B20198864292DB00BFB4E75E380008A6
:100C5000D23C0008C2420008925400082DE9FF4F20
:100C600085B0074691461D46DDE913A60020049095
:100C7000304606EBD071C1F3470B002434E0281B4B
:100C8000401EC1B20A2001F055F8B9FBF0F00A216C
:100C9000B0FBF1F201FB12080498A0B9681EA04253
:100CA00011DDB8F1000F0CD1002004FB0B71CDE970
:100CB00000A6029088B22022129B0699FFF722FF1D
:100CC00010E001200490002008F13001CAB204FBBA
:100CD0000B71CDE900A6029088B2129B0699FFF72E
:100CE00011FF00BF601CC4B2AC42C8DB09B0BDE854
:100CF000F08F2DE9F05F0746884615461E46DDF861
:100D00002890002408EB0600401E83B27819401E8C
:100D100082B241463846FFF723FDA24618E04FF065
:100D2000000B0FE019F8140000F040F8012101EB6E
:100D3000440119F8010000F039F8641C0BF10100BE
:100D40001FFA80FBB345EDDB0AF101001FFA80FAC0
:100D5000AA45E4DBBDE8F09F2DE9FE4F06460F46AD
:100D600014469846DDE90D5ADDF8309010E0CDE9E3
:100D7000015ACDF800902278434639463046FFF7B5
:100D8000C1FE284605EBD07106EB61018EB2641CF2
:100D900020780028EBD1BDE8FE8F10B50446201264
:100DA00000F01CF8E0B200F019F810BD10B50446D0
:100DB000204600F013F810BD10B504464FF4004172
:100DC0000548FFF773FC204600F008F84FF4004197
:100DD0000148FFF76DFC10BD000C024010B5044641
:100DE0004FF480610548FFF761FC204600F0CEF823
:100DF0004FF480610148FFF75BFC10BD001002401A
:100E00001CB50121202000F01FF84FF4C0600090B5
:100E100001208DF8040000208DF8060003208DF8D5
:100E2000050001208DF8070069460448FFF7CAFB5A
:100E30004FF4C0610148FFF73BFC1CBD00140240A9
:100E400000BFFEE77047000029B1064A126802435E
:100E5000044B1A6004E0034A12688243014B1A6093
:100E6000704700003038024029B1064A1268024338
:100E7000044B1A6004E0034A12688243014B1A6073
:100E8000704700004038024029B1064A1268024308
:100E9000044B1A6004E0034A12688243014B1A6053
:100EA000704700004438024029B1064A12680243E4
:100EB000044B1A6004E0034A12688243014B1A6033
:100EC000704700002438024000B587B00121084671
:100ED000FFF7BAFF01210803FFF7D6FFE0200590D6
:100EE00002208DF8180000208DF81A0003208DF8DC
:100EF000190001208DF81B0005A92248FFF762FBAD
:100F0000052211461F48FFF7A5FB052206211D48B3
:100F1000FFF7A0FB052207211A48FFF79BFB0121E1
:100F20000803FFF7C1FF00214FF48050FFF7BCFF1B
:100F30000020ADF800004FF48270ADF802000020F0
:100F4000ADF804000220ADF806000120ADF808005D
:100F50004002ADF80A003820ADF80C000020ADF8D2
:100F60000E000720ADF810006946074800F058F859
:100F70000121054800F03AF8FF2000F007F807B01B
:100F800000BD0000000002400030014010B50446E2
:100F900000BF02210A4800F035F80028F9D02146A8
:100FA000074800F03BF800BF0121054800F02AF88F
:100FB0000028F9D0024800F02EF8C0B210BD0000A1
:100FC0000030014010B50446074800884FF6C7714D
:100FD0000840054908800846008820430880012110
:100FE000014800F003F810BD0030014021B1028833
:100FF00042F04002028004E002884FF6BF731A40BC
:10100000028070470246002013890B400BB101207B
:1010100000E0002070470146888970478181704751
:1010200010B50022028802F441520B884C882343F9
:101030008C882343CC8823430C8923434C89234346
:101040008C892343CC8923431A430280838B4FF23C
:10105000FF74234083830B8A038210BD0CB50020EC
:10106000019000903448006840F4803032490860B4
:1010700000BF3148006800F4003000900198401C27
:101080000190009818B90198B0F5A04FF1D12A4805
:10109000006800F4003010B10120009001E0002051
:1010A00000900098012846D123484030006840F065
:1010B00080502149403108602048006840F4404099
:1010C0001E4908601C48083000681B490831086048
:1010D0000846006840F4004008600846006840F494
:1010E000A05008601648091F0860081F006840F0FB
:1010F0008070091F086000BF0F48006800F0007092
:101100000028F9D040F205700E4908600A480830FE
:10111000006820F0030008490831086008460068AC
:1011200040F00200086000BF03480830006800F08B
:101130000C000828F8D10CBD0038024000700040B7
:1011400008544007003C0240042808D14FF0E02139
:10115000096941F004014FF0E022116107E04FF00E
:10116000E021096921F004014FF0E022116170478C
:1011700010B500BF502080F31188BFF34F8FBFF32D
:101180006F8F00BF02F010F918B14FF08050044982
:10119000086000BF002080F3118800BF10BD000070
:1011A00004ED00E010B51548006840F470001349E4
:1011B00008601348006840F00100114908600020F1
:1011C0000F49083108600E4800680E4908400C4974
:1011D00008600D48091D0860081F006820F4802081
:1011E000091F0860002006490C310860FFF736FF30
:1011F0004FF0006001498039086010BD88ED00E0C3
:1012000000380240FFFFF6FE1030002430B58BB0EE
:1012100004460D4601210220FFF726FE012104208D
:10122000FFF712FE022206211E48FFF713FA4020A4
:10123000099002208DF8280003208DF82900002055
:101240008DF82A0001208DF82B0009A91548FFF719
:10125000B9F9A8B2ADF818000020ADF81A0007944B
:10126000ADF8200006A9104800F082F86020ADF823
:1012700004000120ADF806000020ADF8100001A91F
:10128000094800F02BF80821074800F065F8012113
:10129000054800F00BF80121034800F013F80BB0EB
:1012A00030BD0000000802400004004021B1028867
:1012B00042F08002028004E002884FF67F731A40F9
:1012C0000280704721B1028842F00102028004E0EE
:1012D00002884FF6FE731A400280704770B50024F2
:1012E00000220023058C4FF6FE7635400584028CE3
:1012F0008388048B4FF68F752C40B51E2C400D88CB
:101300002C43751E2A408D892A434D882A43104D4F
:10131000A84202D00F4DA84213D14FF6F7752A40CC
:10132000CD892A434FF6FB752A408D882A434FF614
:10133000FF652B404FF6FF552B400D8A2B434D8AFE
:101340002B43838004838D684563028470BD000055
:1013500000000140000401400A460021018B4FF6C5
:10136000F7731940114301837047416370470000D0
:1013700000220288184B98420ED0184B98420BD08E
:10138000B0F1804F08D0164B984205D0154B9842CB
:1013900002D0154B984204D14FF68F731A404B88F8
:1013A0001A43124B984207D0114B984204D04FF683
:1013B000FF431A400B891A4302804B68C3620B88B3
:1013C0000385054B984202D0044B984201D18B7A99
:1013D000038601238382704700000140000401401E
:1013E0000004004000080040000C004000100040D5
:1013F0000014004010B540F225511D4800F03EF8A1
:1014000010B31B4800F064F8C4B21A48008800F416
:101410000040C8B91748008800F4804060B10A2C29
:1014200003D000201349088020E01248008840F4CF
:1014300000401049088019E00D2C06D10D480088A5
:1014400040F480400B49088010E00A480088C0F34F
:101450000D0009490C5407480088401C05490880C4
:1014600008460088C72801DD0020088010BD000064
:101470000010014040000020C400002070B502466A
:10148000002400230025002040F66A16B14200D156
:1014900000BFC1F3421501F01F03012606FA03F352
:1014A000012D02D19689334006E0022D02D1168A21
:1014B000334001E0968A33400C12012606FA04F408
:1014C0001688344013B10CB1012000E0002070BD3B
:1014D00001468888C0F30800704700BFFEE700BFE0
:1014E000704700003EB54FF6FF704FF4A0734FF405
:1014F000F072002100900846FFF7D8F90020202163
:101500004FF6FF720346CDE90021029049A228213F
:10151000C820FFF721FC002020214FF6FF72034670
:10152000CDE90021029045A25021B920FFF714FC1B
:1015300044480068642190FBF1F0401E85B22020F1
:101540004FF6FF7100220123CDE9002102902A46C7
:10155000502140F21D10FFF781FB0020A023F02254
:10156000782100905020FFF77CF95FE00020FFF722
:10157000BBF804464FF47A7000F0BCF9312C52D11C
:1015800030480068B0F5617F02DB64202D490860B7
:101590002C48006864302B490860084601682A48D6
:1015A000FFF7E3FE002020214FF6FF720346CDE94E
:1015B0000021029021A25021B920FFF7CDFB214844
:1015C0000068642190FBF1F0401E85B220204FF6A8
:1015D000FF7100220123CDE9002102902A4650210B
:1015E00040F21D10FFF73AFB4FF6FF704FF4A07367
:1015F0004FF4F072782100905020FFF757F911480E
:101600000068642190FBF1F0801E00EB80007821DF
:1016100001EBC00085B20020A0232A460090502094
:10162000FFF71FF902E0322C00D100E09EE700BF77
:101630003EBD000061646A75737400006C69676880
:10164000743D0000C00000200004004000F094F948
:1016500030203B49087001203A4908606EE03A4862
:10166000006808B9012000E00020374908604FF405
:101670007A7000F03FF90020FFF736F83049087023
:101680000846007831281DD12E480068401C2D499D
:10169000086008460068042801DB0120086029482A
:1016A0000068012804D0022805D0032809D105E0EC
:1016B00000F0C8FA05E000F0EDFA02E000F012FBDD
:1016C00000BF3BE01E480078322837D11D48006833
:1016D00001280ED11D48006801F04CFA1C48006832
:1016E00001F0F8FA1948006801F0F4FA00F044F942
:1016F00024E01448006802280ED11648006801F062
:1017000039FA1348006801F0E5FA1248006801F060
:10171000E1FA00F031F911E00A48006803280DD120
:101720000D48006801F026FA0948006801F0D2FA75
:101730000948006801F0CEFA00F01EF98FE70000BA
:101740001000002014000020A48242420400002067
:1017500000000020080000200C00002000F020F90C
:1017600036E00020FEF7C0FF1A49087008460078EE
:10177000312810D118480068401C174908600846F5
:101780000068062801DB0120086013490968481E2B
:1017900001F036F81CE00F480078322818D10E48C6
:1017A0000068062813D2DFE800F0120308090A0BCC
:1017B000FFF798FE00F0F4F809E008E007E006E023
:1017C0000648006801F0D6F900F0EAF800BF00BF53
:1017D000C7E70000100000201800002000000020D3
:1017E0000EB522E04FF6FF704FF4A0734FF4F07285
:1017F000002100900846FFF759F8002010214FF60D
:10180000FF720346CDE90021029008A26421084638
:10181000FFF7A2FA4FF47A7000F06CF83320054914
:1018200008700548006801F0A5F9DBE74755493223
:1018300000000000100000200000002000F018F957
:1018400032E00020FEF750FF184908700846007883
:10185000312810D116480068401C15490860084618
:101860000068062801DB0120086011490968481E4C
:1018700000F0C6FF18E00D480078322814D10C485B
:10188000006806280FD2DFE800F00E030405060703
:1018900009E008E007E006E00648006801F06AF9A0
:1018A00000F0E6F800BF00BFCBE70000100000200A
:1018B0001C0000200000002010B504466FF004005A
:1018C000FFF742FCE11704EB5171C1F3C701074A6E
:1018D00011701046007800EB4001C1EBC0104FF6CC
:1018E000FF7101EAC0000249088010BD36000020E7
:1018F0003800002070B504464FF4077094FBF0F0F8
:10190000C6B24FF4077094FBF0F100FB114085B2B2
:1019100005E04FF4077000F009F8701EC6B2002E03
:10192000F7D115B1284600F001F870BD0146114A03
:1019300012884A434FF0E0235A6100229A611A4606
:10194000126942F001021A6100BF4FF0E0221069F3
:1019500000F001021AB100F48032002AF5D04FF0F5
:10196000E022126922F001024FF0E0231A61002206
:101970009A6170473800002008B54FF6FF704FF4A9
:10198000A0734FF4F072002100900846FEF78EFF1E
:1019900001200249086000F055F908BD140000203C
:1019A0000EB54FF6FF704FF4A0734FF4F0720021A4
:1019B00000900846FEF77AFF002020214FF6FF72C4
:1019C0000346CDE9002102901EA23C216420FFF7CE
:1019D000C3F9002020214FF6FF720346CDE9002114
:1019E00002901DA264210846FFF7B6F900202021CD
:1019F0004FF6FF720346CDE90021029018A28C2118
:101A00006420FFF7A9F9002020214FF6FF7203465A
:101A1000CDE90021029012A2B4216420FFF79CF9C5
:101A2000002020214FF6FF720346CDE900210290ED
:101A30000DA2DC216420FFF78FF9002000F0E0FE0A
:101A40000EBD00004261636B67726F756E64204C5F
:101A500069676874000000005749464900000000AB
:101A60002E2E2E2E2E0000006261636B00000000FF
:101A70000EB54FF6FF704FF4A0734FF4F0720021D3
:101A800000900846FEF712FF002020214FF6FF725B
:101A90000346CDE9002102901EA23C216420FFF7FD
:101AA0005BF9002020214FF6FF720346CDE90021AB
:101AB00002901BA264210846FFF74EF90020202166
:101AC0004FF6FF720346CDE90021029017A28C2148
:101AD0006420FFF741F9002020214FF6FF720346F2
:101AE000CDE90021029014A2B4216420FFF734F95B
:101AF000002020214FF6FF720346CDE9002102901D
:101B000010A2DC216420FFF727F9002000F078FE06
:101B10000EBD0000476573747572653100000000EA
:101B20004765737475726532000000004765737411
:101B30007572653300000000476573747572653413
:101B4000000000006261636B000000001CB5A8206B
:101B5000FFF7B2FEFFF754F9FEF70AFFFEF7ACFD00
:101B6000FFF74EF940F247314FF47A70FFF74EFB22
:101B70004FF4FA711E48FFF7F8FB1E4804210023BA
:101B8000CA01CDE900101CA11E4801F0C3FB1E488C
:101B9000032100234FF40072CDE900101BA11E4861
:101BA00001F0B8FB1D48032100234FF40072CDE97A
:101BB00000101BA11D4801F0ADFB1D4803210023AF
:101BC0004FF40072CDE900101AA11D4801F0A2FBEC
:101BD0000D48006801F07EF81048006801F07AF8BE
:101BE0001348006801F076F801F026F800201CBDCB
:101BF00000040040000000206170705F7461736B2E
:101C0000310000004D160008040000206170705F74
:101C10007461736B320000005D170008080000203B
:101C20006170705F7461736B33000000E11700082E
:101C30000C0000206170705F7461736B34000000F1
:101C40003D1800080EB54FF6FF704FF4A0734FF427
:101C5000F072002100900846FEF728FE00202021A7
:101C60004FF6FF720346CDE90021029006A228211B
:101C7000B920FFF771F80648A0231A4650210090BA
:101C80001846FFF736F80EBD53657474696E670029
:101C9000FA7D00080EB54FF6FF704FF4A0734FF4B5
:101CA000F072002100900846FEF700FE002020217F
:101CB0004FF6FF720346CDE90021029006A22821CB
:101CC000CD20FFF749F80648A0231A46502100907E
:101CD0001846FFF70EF80EBD446174610000000065
:101CE000FA4501080EB54FF6FF704FF4A0734FF49C
:101CF000F072002100900846FEF7D8FD0020202158
:101D00004FF6FF720346CDE90021029006A228217A
:101D1000C820FFF721F80648A0231A46502100905A
:101D20001846FEF7E6FF0EBD547261696E000000B2
:101D3000FA0D020810B50246012000E050430B00E6
:101D4000A1F10104E1B2F9D110BD00002DE9F0418B
:101D500005460E462648076826480068001D00F024
:101D600067FD50B92348006890F82C100120884086
:101D700021490968814320480160681CD8B9D6B15F
:101D80001E4948681B49096888601A4982680968C1
:101D9000CA6018490968091D8268516015490968B7
:101DA000091D8160154A134909684A61114609688D
:101DB000491C11601AE07C190E4800684460BC425E
:101DC00007D20C480168091D0D48006800F054FD59
:101DD0000CE008480168091D0A48006800F04CFD45
:101DE00009480068844201D207480460BDE8F081D8
:101DF00058000020440000205C00002080020020E9
:101E00004C000020480000207400002010B504465B
:101E100000F058FD31480068401C304908603048E7
:101E2000006840B92E4804600846006801280DD1BA
:101E300000F0B2F90AE02B48006838B92848006879
:101E4000C06AE16A884201D82548046026480068D3
:101E5000401C2549086008460068206494F82C104E
:101E60000120884021490968084320490860E16A47
:101E700001EB81011E4A02EB81014868A060826883
:101E8000E260211D826851608160E16A01EB81019D
:101E9000174A02EB81026261E16A01EB8101144A97
:101EA00052F82110491CE26A02EB8202104B43F8FF
:101EB000221000F031FD0B48006868B10848006846
:101EC000C06AE16A884207D24FF080500949086031
:101ED000BFF34F8FBFF36F8F10BD00005400002081
:101EE0004400002060000020700000205C00002002
:101EF000CC01002004ED00E010B500F0E3FC104838
:101F00000068D0B90F4800F0A7FC0F4800F0A4FC0F
:101F10000C480E4908600C480D49086000220C214D
:101F20000A2001F059F8064908600846006820B107
:101F300008A10348006800F067FD00F0EDFC10BD4B
:101F40008C00002094020020A802002084000020C1
:101F500088000020546D72510000000010B516E09A
:101F600000F0B0FC0C48C068C468201D00F060FCA4
:101F70000A480068401E0949086009480068401E78
:101F80000749086000F0C8FC204600F020F804482B
:101F900000680028E4D110BD6C020020540000202D
:101FA0005000002070B504460D46206C70B1216CC5
:101FB000E0680144E160D4E90210884201D321685D
:101FC000E1602846226CE168FEF7AFF970BD10B5FC
:101FD0000446206B00F0BEFC204600F0BBFC10BDA8
:101FE0000146084A126812680AB9012200E000227C
:101FF0000A600A6822B9034A1268D268106800E0D1
:10200000002070478400002030B54FF49633154807
:1020100000F007042CB1C01D20F00700114C041B78
:102020001B1B0246104C226000240F4D6C60D01820
:10203000083820F007000D4C206000240B4D2D685F
:102040006C600A4D2D682C601146441A4C60074C98
:1020500024680C60064D4C682C60064D4C682C6062
:1020600030BD0000BC020020A4000020AC00002015
:10207000B4000020B000002000BFFFF76FFF06484B
:1020800000680128F9D94FF0805004490860BFF377
:102090004F8FBFF36F8FF0E7CC01002004ED00E01D
:1020A0002DE9F04106460D4617469846069C0DB9A7
:1020B000246000E02760E66325640121204600F0EB
:1020C000BFFF84F84C80BDE8F0812DE9F05F8246C7
:1020D0000F4690469B460A9E0C9C4FEA8801A5221B
:1020E000206BFEF767F9A8F10100216B01EB800975
:1020F00029F0070909F0070008B9012000E00020D5
:1021000050B900BF502080F31188BFF34F8FBFF349
:102110006F8F00BF00BFFEE77FB1002507E0795D4C
:1021200004F134004155785D00B902E06D1C0A2DC0
:10213000F5D300BF00213D200155052E01D201201D
:1021400000E0002050B900BF502080F31188BFF399
:102150004F8FBFF36F8F00BF00BFFEE7052E00D388
:102160000426E662A664201D00F083FB04F118003B
:1021700000F07FFB2461C6F10500A06164625A464D
:102180005146484600F026FB20600B9808B10B989A
:102190000460BDE8F09F000010B5002407E004EBE8
:1021A00084010F4A02EB810000F056FB641C052CF1
:1021B000F5D30C4800F050FB0B4800F04DFB0B48EA
:1021C00000F04AFB0A4800F047FB0A4800F044FBD5
:1021D00004480949086004480849086010BD000027
:1021E000CC010020300200204402002058020020D0
:1021F0006C02002080020020480000204C000020DB
:1022000010B50146164800E0006803688B42FBD316
:102210000246436813448B4204D143684C6823440C
:10222000436001460A464B6813440468A34211D137
:102230000C4C03682468A34208D04B6804686468A7
:1022400023444B6003681B680B6005E0054B1B686B
:102250000B6001E003680B60884200D0016010BD94
:10226000A4000020AC0000202DE9F04104460D46FA
:1022700016461F464FF0000865602461B5420CD831
:10228000F01BA169884202D34FF0010811E0211D23
:102290000948006800F0F0FA0BE0BE4204D2BD42EB
:1022A00002D34FF0010804E0211D0448006800F04B
:1022B000E3FA4046BDE8F081880000208400002059
:1022C00070B5054600F0FEFAA86B08B9012400E0DD
:1022D000002400F021FB204670BD000070B50546CB
:1022E0000E460E480068C068C468201D00F0A0FAC1
:1022F00094F8280000F0040028B132462946204610
:1023000000F0D6F805E094F8280000F0FE0084F80C
:1023100028002046216A884770BD00008400002004
:102320007FB57FE0019800287CDB039C606908B9D9
:10233000012000E0002010B9201D00F079FA684665
:1023400000F0E2F8054601980A2869D2DFE800F0BB
:102350006805072E365806082F3700BF00BF00BF9C
:1023600094F8280040F0010084F828000298A2693F
:10237000811803462A462046FFF776FFA8B194F855
:10238000280000F0040038B10298A26981182A469A
:10239000204600F08DF805E094F8280000F0FE00DB
:1023A00084F828002046216A88473AE000BF94F864
:1023B000280000F0FE0084F8280032E000BF94F806
:1023C000280040F0010084F828000298A061A0696C
:1023D00008B1012000E0002050B900BF502080F378
:1023E0001188BFF34F8FBFF36F8F00BF00BFFEE7B1
:1023F000A06941192B462A462046FFF735FF10E019
:1024000094F8280000F0020018B9204600F0A2FA63
:1024100005E094F8280000F0FE0084F8280000E0B1
:1024200000BF00BF002201A90348006800F076FE4B
:1024300000287FF477AF7FBD8C000020F8B50546FB
:102440000C4600F0C7FC684600F05EF806460098AF
:1024500020BB44B9B54206D801F014F931462846EC
:10246000FFF73CFF1CE03CB10E480068006808B96B
:10247000012000E000200446A91B22460A4800680B
:1024800000F0F2FA01F0FEF850B94FF08050074921
:102490000860BFF34F8FBFF36F8F01E001F0F2F8D8
:1024A000F8BD0000880000208C00002004ED00E052
:1024B00070B504460D46164604E0A0690544204662
:1024C000216A8847A06941192B4632462046FFF70A
:1024D000CBFE0028F1D170BD09480068006808B93A
:1024E000012000E0002020B14FF0FF3005490860D6
:1024F00005E003480068C06800680249086070474A
:10250000480000207400002070B5044600F046FF2B
:10251000054607480068854204D200F00BF8012008
:10252000206001E00020206001480560284670BD61
:102530009400002070B508E00D480068C068046889
:102540004FF0FF312046FFF7C9FE094800680068D8
:1025500008B9012000E000200028EDD004480568FB
:1025600004480068024908600248056070BD000028
:1025700084000020880000200E480068401C08B934
:10258000012000E0002050B900BF502080F31188E6
:10259000BFF34F8FBFF36F8F00BF00BFFEE700BFD9
:1025A000502080F31188BFF34F8FBFF36F8F00BFB0
:1025B00000BFFEE79800002010B50246002011463B
:1025C00052B900BF502383F31188BFF34F8FBFF37D
:1025D0006F8F00BF00BFFEE70B4C4B69A34201D1D8
:1025E000012300E0002373B1084C8B6AA34201D1A0
:1025F000012300E0002333B98B6A0BB9012300E00B
:10260000002303B1012010BD8002002058020020E9
:1026100008B500BF6846FFF7E3FC04462046009972
:10262000FFF70CFFFFF77CFEF4E770B5044600F0FF
:1026300049F994F9455010E0606A08B9012000E0BA
:10264000002038B904F1240000F08CFF18B100F02C
:102650003DFA00E003E0681E45B2002DECDC00BF4F
:10266000FF2084F8450000F057F900F02BF994F9A9
:10267000445010E0206908B9012000E0002048B96A
:1026800004F1100000F06EFF08B100F01FFA681EA0
:1026900045B200E001E0002DECDC00BFFF2084F833
:1026A000440000F039F970BD2DE9F04705464FF0C0
:1026B000000900F08FFB4248006808B9FFF7A4FC4E
:1026C00075B105F00700C0F11008C8F1FF30A8424D
:1026D00001D2012000E0002008B9454400E00025B7
:1026E000012000EBE570002853D0002D51D0354873
:1026F000006885424DD8344E3046046801E02646D5
:1027000024686068A84202D220680028F7D12C48CB
:10271000006884423DD0306800F1080920683060CC
:102720006068401B102819D9671907F0070008B91D
:10273000012000E0002050B900BF502080F3118834
:10274000BFF34F8FBFF36F8F00BF00BFFEE760681E
:10275000401B786065603846FFF752FD1949606894
:102760000968081A17490860084600681749096887
:10277000884203D21348006814490860606840F03A
:10278000004060600020206011480068401C104933
:10279000086000F077FF09F0070008B9012000E0A9
:1027A000002050B900BF502080F31188BFF34F8F35
:1027B000BFF36F8F00BF00BFFEE74846BDE8F0875C
:1027C000AC000020B0000020A4000020B4000020D5
:1027D000B8000020001F4FF080730360001F21F03D
:1027E00001030360001F054B036014380260001FE3
:1027F0006FF002030360203870470000792500085D
:1028000038B504464FF6FF704FF4A07363220021E1
:1028100000900846FEF74AF804EB84004B2202EBD6
:10282000C00081B2002306225520FDF77CFE38BD92
:1028300001460A69D1E901309860D1E90103586085
:102840005068884201D18868506000200861106893
:10285000401E10601068704700F1080141604FF0A1
:10286000FF31816000F10801C16001610021016058
:10287000704700210161704710B502460B685C1C6F
:102880000CB9106907E002F1080000E040684468F4
:1028900024689C42FAD944684C604C68A160886006
:1028A00041600A611468641C146010BD42684A608B
:1028B00093688B60936859609160086103685B1C42
:1028C0000360704700BF502080F31188BFF34F8F23
:1028D000BFF36F8F00BF0E480068401C0C490860B2
:1028E00008460068012812D10A480068C0B208B939
:1028F000012000E0002050B900BF502080F3118873
:10290000BFF34F8FBFF36F8F00BF00BFFEE770476D
:102910009800002004ED00E00D48006850B900BFA9
:10292000502080F31188BFF34F8FBFF36F8F00BF2C
:1029300000BFFEE706480068401E054908600846DB
:10294000006820B9002080F3118800BF00BF7047E5
:102950009800002070B506463546002E3BD0083D55
:102960002C466068C00F50B900BF502080F311881A
:10297000BFF34F8FBFF36F8F00BF00BFFEE720682C
:1029800008B9012000E0002050B900BF502080F3BA
:102990001188BFF34F8FBFF36F8F00BF00BFFEE7FB
:1029A0006068C00FB8B12068A8B9606820F0004026
:1029B000606000F00FFA0849606809680844064939
:1029C00008602046FFF71CFC04480068401C0349CF
:1029D000086000F057FE70BDB0000020BC00002071
:1029E00000204FF0E02108618861064800684FF43C
:1029F0007A71B0FBF1F0401E4FF0E02148610720F2
:102A0000086170472000002030B502460B460021C7
:102A100052B900BF502484F31188BFF34F8FBFF326
:102A20006F8F00BF00BFFEE7BBB1002012E00D4C6E
:102A300004EBC0046468944203D10A4C04EBC00167
:102A40000AE031B9074C54F8304014B9054C04EB96
:102A5000C001401C0828EAD300BF09B10B604A60DE
:102A600030BD00008C0100202DE9F04105460E46E6
:102A700017462C46FFF726FF94F94400401C10B976
:102A8000002084F8440094F94500401C10B900204F
:102A900084F84500FFF740FFA06B28B93A4631465D
:102AA00004F1240000F034F82046FFF7BEFDBDE835
:102AB000F081000003490968016003490968416029
:102AC000704700006C0000205800002001200149E0
:102AD000086070476800002070B504460D4654B980
:102AE00000BF502080F31188BFF34F8FBFF36F8F6B
:102AF00000BF00BFFEE70548016818312046FFF718
:102B0000BBFE01212846FFF721F970BD44000020DB
:102B100070B504460E46154654B900BF502080F3E8
:102B20001188BFF34F8FBFF36F8F00BF00BFFEE769
:102B300060680F490968C8610D49826809680A62BE
:102B40000B490968183182685160094909681831D0
:102B50008160074909688C622168491C21600DB1B8
:102B60004FF0FF3629463046FFF7F0F870BD000001
:102B70004400002070B505462C4655B900BF5020D2
:102B800080F31188BFF34F8FBFF36F8F00BF00BF7B
:102B9000FEE725480068844245D0002C43D0FFF76B
:102BA00091FE2046FFF708FDD8B3201DFFF740FE39
:102BB00094F82C10012088401C49096808431B49DF
:102BC0000860E16A01EB8101194A02EB8101486862
:102BD000A0608268E260211D826851608160E16AC4
:102BE00001EB8101124A02EB81026261E16A01EBB1
:102BF00081010F4A52F82110491CE26A02EB82025D
:102C00000B4B43F822100849E06A0968C96A8842F8
:102C100007D34FF0805007490860BFF34F8FBFF3D1
:102C20006F8FFFF779FE70BD440000205C0000202C
:102C3000CC01002004ED00E01CB51E4800210B462D
:102C40008222CDE900101CA11D4800F063FB044660
:102C5000012C02D100F0D2FD0446012C15D100BF99
:102C6000502080F31188BFF34F8FBFF36F8F00BFE9
:102C70004FF0FF301349086001201349086000201D
:102C80001249086000F0F4F810E0601C08B101205F
:102C900000E0002050B900BF502080F31188BFF33E
:102CA0004F8FBFF36F8F00BF00BFFEE7084800687B
:102CB0001CBD00007800002049444C450000000085
:102CC00079200008740000206000002058000020D7
:102CD0007C00002070B50546FFF7F4FD15B93548B6
:102CE000006800E028460446201DFFF7A1FD78B9E2
:102CF000E06A00EB8000304951F8200040B994F8B8
:102D00002C10012088402D49096881432B4801601F
:102D1000A06A18B104F11800FFF78AFD211D2848A8
:102D2000FFF7C4FD002009E004F15401095C01290A
:102D300003D1002204F154010A54401C0128F3DBA2
:102D4000FFF7EAFD1F48006828B1FFF7BBFDFFF75A
:102D5000C3FBFFF7E1FD17480068844229D11948F9
:102D60000068D0B11848006808B9012000E00020D0
:102D700050B900BF502080F31188BFF34F8FBFF3CD
:102D80006F8F00BF00BFFEE74FF080500F49086013
:102D9000BFF34F8FBFF36F8F0BE0094800680C49FA
:102DA0000968884203D100200249086001E000F070
:102DB00019F870BD44000020CC0100205C00002008
:102DC00080020020600000208000002004ED00E070
:102DD0005400002002480068401C01490860704708
:102DE000800000201D48006818B101201C490860BF
:102DF00032E000201A4908601A480068B0FA80F0F2
:102E0000C0F11F0101EB8100174A52F8200008B100
:102E1000012000E0002050B900BF502080F311884D
:102E2000BFF34F8FBFF36F8F00BF00BFFEE701EB13
:102E300081020D4B03EB820042685268426000F150
:102E400008024368934202D1426852684260426875
:102E5000D268064B1A6000BF704700008000002057
:102E6000680000205C000020CC010020440000200D
:102E70001CB5524800685249884201D0012000E048
:102E8000002050B900BF502080F31188BFF34F8F4E
:102E9000BFF36F8F00BF00BFFEE748480068484996
:102EA000491E884201D0012000E0002050B900BF37
:102EB000502080F31188BFF34F8FBFF36F8F00BF97
:102EC00000BFFEE73F49084600780190FF200A4610
:102ED00010700846007800909DF8000000F0F000A7
:102EE0009DF80020904201D1012000E0002050B95F
:102EF00000BF502080F31188BFF34F8FBFF36F8F57
:102F000000BF00BFFEE79DF8000000F050002E4A11
:102F1000107007202D4A106009E02C480068401E00
:102F20002A4A10609DF800004006000E00909DF8AF
:102F3000000000F080008028EFD024480068C0F135
:102F40000700042801D1012000E0002050B900BF93
:102F5000502080F31188BFF34F8FBFF36F8F00BFF6
:102F600000BFFEE7194800680002184A10601046CA
:102F7000008800F4E0601060124A019810700F4859
:102F80002030006840F470000C4920310860084689
:102F9000006840F070400860FFF722FD00200C49F7
:102FA0000860FDF765F90B48006840F040400949AA
:102FB0000860FDF749F900201CBD000000ED00E0AD
:102FC00071C20F4100E400E09C000020A00000203E
:102FD0009800002034EF00E02DE9F84305460E4646
:102FE00017460024E5B1601EB0FBF5F0B04217D3E0
:102FF00005FB06F010F1510F12D805FB06F808F199
:103000005000FFF751FB0446B4B1A14609F1500945
:103010003B464A46314628460094FFF741F80BE00C
:1030200054B900BF502080F31188BFF34F8FBFF316
:103030006F8F00BF00BFFEE72046BDE8F8830000A9
:103040002DE9F04105460E4601272C4654B900BF34
:10305000502080F31188BFF34F8FBFF36F8F00BFF5
:1030600000BFFEE7002C42D0E06B00283FD04FF0BD
:10307000FF31E06BB1FBF0F0216C884237D3FFF7F2
:1030800021FCD4E90F12206801FB0200A06000209F
:10309000A06320686060E06B401E226C216800FB2A
:1030A0000211E160FF2084F8440084F845009EB9D5
:1030B000206908B9012000E00020A8B904F110003F
:1030C00000F050FA80B14FF0805013490860BFF310
:1030D0004F8FBFF36F8F07E004F11000FFF7BCFBC9
:1030E00004F12400FFF7B8FBFFF716FC00E000270F
:1030F0000FB1012000E0002050B900BF502080F344
:103100001188BFF34F8FBFF36F8F00BF00BFFEE783
:103110003846BDE8F081000004ED00E02DE9F741FC
:1031200083B005460E464FF000082C4654B900BF48
:10313000502080F31188BFF34F8FBFF36F8F00BF14
:1031400000BFFEE70EB9206C08B9012000E00020A6
:1031500050B900BF502080F31188BFF34F8FBFF3E9
:103160006F8F00BF00BFFEE700F008F908B90598AF
:1031700008B9012000E0002050B900BF502080F3C2
:103180001188BFF34F8FBFF36F8F00BF00BFFEE703
:1031900000BFFFF797FBA76BF7B131462046FEF75C
:1031A00001FF781EA063206908B9012000E000201B
:1031B00060B904F1100000F0D5F938B14FF080503B
:1031C0002F490860BFF34F8FBFF36F8FFFF7A4FB4A
:1031D000012006B0BDE8F081059818B9FFF79CFB07
:1031E0000020F6E7B8F1000F04D101A8FFF762FC58
:1031F0004FF00108FFF790FBFFF7ECFDFFF762FBD4
:1032000094F94400401C10B9002084F8440094F95B
:103210004500401C10B9002084F84500FFF77CFBF6
:1032200005A901A800F02EF8F0B92046FFF748F8EC
:10323000A0B104F124000599FFF74EFC2046FFF7EA
:10324000F4F900F01FFA0028A3D14FF080500C4988
:103250000860BFF34F8FBFF36F8F9AE72046FFF7E9
:10326000E4F900F00FFA94E72046FFF7DEF900F0EA
:1032700009FA2046FFF724F800288AD00020A8E7A2
:1032800004ED00E070B505460C4655B900BF50206E
:1032900080F31188BFF34F8FBFF36F8F00BF00BF64
:1032A000FEE754B900BF502080F31188BFF34F8F61
:1032B000BFF36F8F00BF00BFFEE7FFF703FB1348AC
:1032C00002686868131A2068401C08B9002619E0D3
:1032D0000F4928680968884206D06868904203D878
:1032E0000126002020600DE02068984207D9206860
:1032F000C01A20602846FFF7DDFB002602E0002010
:1033000020600126FFF708FB304670BD5800002002
:103310006C0000202DE9FF4F85B080468946174696
:10332000DDE912ABB800FFF7BFF9064676B15820C9
:10333000FFF7BAF904462CB158212046FDF764F88E
:10334000266304E03046FFF705FB00E000247CB173
:103350000020CDE900ABCDE902403A46494640465F
:10336000089BFEF7B2FE2046FEF750FD012501E066
:103370004FF0FF35284609B0BDE8F08F05490968D0
:1033800009B9012005E00449096809B9022000E0F3
:10339000002070476000002080000020014908687C
:1033A00070470000580000202DE9F0414FF0000860
:1033B0006148006800287DD160480068451C5F486E
:1033C000056015BB5E480068006808B9012000E090
:1033D000002050B900BF502080F31188BFF34F8FF9
:1033E000BFF36F8F00BF00BFFEE755480768554821
:1033F0000068534908605348076053480068401C00
:1034000051490860FFF768F800BF504800688542DE
:1034100077D300BF4A480068006808B9012000E07F
:10342000002020B14FF0FF304849086068E0444870
:103430000068C068C4686668B54202D24348066046
:103440005EE06069D4E902128A60D4E902214A6030
:10345000211D42688A4201D1E16841600022626117
:103460000168491E0160A06A98B1A06AD4E90712F8
:103470008A60D4E907214A6004F1180142688A424F
:1034800001D1216A41600022A2620168491E0160E7
:1034900000BF94F82C10012088402D49096808438A
:1034A0002B490860E16A01EB81012A4A02EB8101A4
:1034B000486800E037E0A0608268E260211D826811
:1034C00051608160E16A01EB8101224A02EB8102D5
:1034D0006261E16A01EB81011E4A52F82110491C28
:1034E000E26A02EB82021B4B43F822101A49E06A9F
:1034F0000968C96A88428DD94FF001088AE700E05F
:1035000000BF15480068C06A00EB8000114951F8FF
:103510002000012801D94FF001081048006808B1C7
:103520004FF0010804E00E480068401C0C49086098
:103530004046BDE8F08100008000002058000020D7
:10354000480000204C0000206C0000207400002087
:103550005C000020CC010020440000206800002016
:103560006400002070B50346D868C16851B900BF37
:10357000502080F31188BFF34F8FBFF36F8F00BFD0
:1035800000BFFEE7886AD1E90745A560D1E9075485
:10359000656001F118044568A54201D10C6A4460D8
:1035A00000258D620468641E0460304800680028AD
:1035B0003DD14869D1E90245A560D1E90254656071
:1035C0000C1D4568A54201D1CC68446000254D61C1
:1035D0000468641E046091F82C400120A040244C33
:1035E00024682043224C2060CC6A04EB8404214DE3
:1035F00005EB8404606888608568CD600C1D856873
:103600006C608460CC6A04EB84041A4D05EB84057D
:103610004D61CC6A04EB8404164D55F82440641CBB
:10362000CD6A05EB8505134E46F8254010E0124C97
:103630006068C86185680D6201F1180485686C6076
:1036400084600D4D8D622C462468641C2C6000BF84
:103650000A4CC86A2468E46AA04204D90122012005
:10366000074C206000E00022104670BD8000002062
:103670005C000020CC010020580200204400002003
:103680006800002070B5002400265348006850B937
:1036900000BF502080F31188BFF34F8FBFF36F8FAF
:1036A00000BF00BFFEE7FFF70DF94B480068401E62
:1036B000494908600846006800287DD147480068ED
:1036C000002879D05BE04648C068C468A06AD4E9A5
:1036D00007128A60D4E907214A6004F118014268A0
:1036E0008A4201D1216A41600022A2620168491E1A
:1036F00001606069D4E902128A60D4E902214A605B
:10370000211D42688A4201D1E16841600022626164
:103710000168491E016094F82C100120884031494D
:10372000096808432F490860E16A01EB81012E4ACC
:1037300002EB81014868A0608268E260211D826816
:1037400051608160E16A01EB8101274A02EB81024D
:103750006261E16A01EB8101234A52F82110491CA0
:10376000E26A02EB8202204B43F822101F49E06A12
:103770000968C96A884202D301201D4908601848B7
:10378000006808B9012000E0002000289BD00CB19F
:10379000FEF7A2FE1748056865B100BFFFF704FEFB
:1037A00010B10120124908606D1E002DF6D10020D5
:1037B000104908600E4800E009E0006838B10126B1
:1037C00030070D490860BFF34F8FBFF36F8FFFF7CE
:1037D000A3F8304670BD0000800000205400002097
:1037E000580200205C000020CC0100204400002092
:1037F000680000206400002004ED00E01CB50024F7
:10380000FEF77AFB0E48006858B10E4802210023EB
:103810004FF48272CDE900100BA10D48FFF77AFD3D
:10382000044654B900BF502080F31188BFF34F8F76
:10383000BFF36F8F00BF00BFFEE720461CBD000036
:103840008C00002090000020546D7220537663009D
:10385000112600084FF04070E1EE100A704700009A
:103860000000000000000000000000000404040448
:1038700004000004000014140A000000000000000E
:10388000000000000A0A1F0A0A1F0A0A00000004BA
:103890000E1505060C14150E0400000012150D156A
:1038A0002E2C2A1200000000040A0A3615152916CB
:1038B00000000202010000000000000000001008EB
:1038C000080404040404080810000204040808089A
:1038D00008080404020000000004150E0E15040080
:1038E000000000000008083E08080000000000007A
:1038F0000000000000000202010000000000003F84
:1039000000000000000000000000000000000002B5
:10391000000000201010080804040202010000004A
:103920000E1111111111110E000000000406040403
:103930000404040E000000000E1111080402011F0F
:10394000000000000E11100C1010110E00000000FD
:10395000080C0C0A091F081C000000001F01010FC1
:103960001110110E000000000C12010D1311110EA8
:10397000000000001E1008080404040400000000F9
:103980000E11110E1111110E000000000E1111196F
:1039900016100906000000000000040000000004EA
:1039A000000000000000000400000004040000000B
:1039B00010080402020408100000000000003F008C
:1039C0003F0000000000000002040810100804027C
:1039D000000000000E1111080404000400000000A3
:1039E0001C22292D2D1D221C0000000004040C0A9D
:1039F0000A1E1233000000000F12120E1212120FD4
:103A0000000000001E1101010101110E0000000064
:103A10000F1212121212120F000000001F120A0ED3
:103A20000A02121F000000001F120A0E0A020207FB
:103A3000000000001C1201013911120C00000000EE
:103A40003312121E12121233000000001F0404046D
:103A50000404041F000000003E08080808080808C5
:103A60000907000037120A060A1212370000000088
:103A7000070202020202223F000000003B1B1B1B48
:103A800015151535000000003B1216161A1A1217EC
:103A9000000000000E1111111111110E00000000A4
:103AA0000F12120E02020207000000000E11111187
:103AB0001117190E180000000F12120E0A121237F9
:103AC000000000001E1101060810110F0000000088
:103AD0001F1504040404040E000000003312121227
:103AE0001212120C000000003312120A0A0C040415
:103AF00000000000151515150E0A0A0A0000000046
:103B00001B0A0A04040A0A1B000000001B0A0A0A16
:103B10000404040E000000001F0908040402121F20
:103B200000001C0404040404040404041C00000237
:103B3000020404040808081010000E080808080809
:103B4000080808080E00040A000000000000000039
:103B5000000000000000000000000000003F020420
:103B60000000000000000000000000000000000C49
:103B7000121C123C000000030202020E1212120E6E
:103B8000000000000000001C1202120C00000018CF
:103B90001010101C1212123C000000000000000C5B
:103BA000121E021C000000182404041E0404041E3B
:103BB000000000000000003C120C021C221C00034C
:103BC0000202020E12121237000000040400000666
:103BD0000404040E000000080800000C080808088F
:103BE000080700030202021A0A060A13000000076F
:103BF000040404040404041F000000000000000F7B
:103C000015151515000000000000000F12121237E4
:103C1000000000000000000C1212120C0000000056
:103C20000000000F1212120E020700000000001C1C
:103C30001212121C103800000000001B06020207BE
:103C4000000000000000001E020C101E000000001A
:103C50000004041E0404041C000000000000001BFB
:103C60001212123C000000000000001B0A0A0404AB
:103C70000000000000000015150E0A0A00000000F8
:103C80000000001B0A040A1B0000000000000033B3
:103C900012120C08040300000000001E0804041E99
:103CA000000018080808080C080808081800080888
:103CB0000808080808080808080806040404040896
:103CC00004040404060016090000000000000000BF
:103CD00000000000000000000000000000000000E4
:103CE000000000000008080808080808000018186C
:103CF000000000486C2412000000000000000000DA
:103D000000000000002424247F1212127F121212DD
:103D100000000000081C2A2A0A0C1828282A2A1C3D
:103D2000080800000022251515152A58545454225D
:103D300000000000000C1212120A76252911916E63
:103D40000000000606040300000000000000000060
:103D50000000004020101008080808080810102073
:103D60004000000204080810101010101008080489
:103D700002000000000008086B1C1C6B0808000013
:103D8000000000000000080808087F080808080074
:103D90000000000000000000000000000000060617
:103DA00004030000000000000000FE00000000000E
:103DB00000000000000000000000000000000606F7
:103DC0000000000080404020201010080804040279
:103DD000020000000018244242424242424224189B
:103DE0000000000000080E08080808080808083E3F
:103DF00000000000003C4242422020100804427EA5
:103E000000000000003C4242201820404042221C9A
:103E10000000000000203028242422227E20207868
:103E200000000000007E0202021A26404042221CCE
:103E30000000000000382402021A264242422418E0
:103E400000000000007E2222101008080808080860
:103E500000000000003C4242422418244242423CFE
:103E60000000000000182442424264584040241CD4
:103E700000000000000000001818000000001818E2
:103E80000000000000000000000800000000000822
:103E9000080400000040201008040204081020401C
:103EA00000000000000000007F0000007F00000014
:103EB0000000000000020408102040201008040246
:103EC00000000000003C424246402010100018183C
:103ED00000000000001C225A555555552D42221C49
:103EE00000000000000808181414243C224242E795
:103EF00000000000001F2222221E22424242221FF6
:103F000000000000007C4242010101010142221C2C
:103F100000000000001F2242424242424242221F51
:103F200000000000003F4212121E12120242423FE5
:103F300000000000003F4212121E1212020202078D
:103F400000000000003C2222010101712122221CFC
:103F50000000000000E7424242427E42424242E705
:103F600000000000003E0808080808080808083E8D
:103F700000000000007C1010101010101010101025
:103F8000110F0000007722120A0E0A121222227765
:103F90000000000000070202020202020202427F49
:103FA000000000000077363636362A2A2A2A2A6B85
:103FB0000000000000E346464A4A525252626247FD
:103FC00000000000001C2241414141414141221CAE
:103FD00000000000003F424242423E02020202074D
:103FE00000000000001C2241414141414D53321C60
:103FF00060000000003F4242423E1212222242C7AD
:1040000000000000007C4242020418204042423E70
:1040100000000000007F4908080808080808081C7C
:104020000000000000E74242424242424242423C1B
:104030000000000000E7424222242414141808085B
:1040400000000000006B494949495555362222229B
:104050000000000000E7422424181818242442E736
:104060000000000000772222141408080808081C29
:1040700000000000007E2120101008040442423F8E
:104080000000007808080808080808080808080858
:104090007800000002020404080808101020202004
:1040A0004040001E101010101010101010101010B2
:1040B0001E00003844000000000000000000000066
:1040C00000000000000000000000000000000000F0
:1040D00000FF0006080000000000000000000000D3
:1040E0000000000000000000003C4278444242FC16
:1040F0000000000000030202021A26424242261A71
:1041000000000000000000000038440202024438B1
:10411000000000000060404040784442424264D8C1
:104120000000000000000000003C427E0202423C11
:104130000000000000F08808087E08080808083E13
:104140000000000000000000007C22221C023C4213
:10415000423C000000030202023A4642424242E769
:1041600000000000000C0C00000E08080808083EC3
:1041700000000000003030000038202020202020E7
:10418000221E0000000302020272120A1612227797
:1041900000000000000E0808080808080808083E8B
:1041A0000000000000000000007F9292929292B7FF
:1041B0000000000000000000003B4642424242E78F
:1041C0000000000000000000003C42424242423C2D
:1041D0000000000000000000001B26424242221E98
:1041E0000207000000000000007844424242447888
:1041F00040E000000000000000774C040404041FAD
:104200000000000000000000007C42023C40423EF2
:104210000000000000000008083E080808080830F8
:10422000000000000000000000634242424262DCE5
:10423000000000000000000000E7422424140808E9
:10424000000000000000000000EB49495555222203
:104250000000000000000000007624181818246EEA
:10426000000000000000000000E7422424141808A9
:104270000807000000000000007E22100808447EAD
:10428000000000C0202020202010202020202020FE
:10429000C00010101010101010101010101010107E
:1042A0001010000608080808081008080808080880
:1042B00006000C32C20000000000000000000000F8
:1042C00000000000000000000000000000000000EE
:1042D00000000000000000000000000000000000DE
:1042E00000000000000000000000000000000000CE
:1042F000000000000000000000006000600060009E
:10430000600060006000600040002000200020008D
:10431000000000000000600060006000000000007D
:10432000000000000000600660063003980188006D
:104330004400000000000000000000000000000039
:10434000000000000000000000000000000000006D
:104350000000000000000000000010021002100227
:104360001002FE07FE070802080108010801080103
:10437000FE07FE070401040104010401000000001F
:10438000000000000000000040004000F001580361
:104390004C03CC034C0058007000E000C001C00189
:1043A00040034C035C034C034801F0004000400014
:1043B000000000000000000000000E010A01910052
:1043C00091009100510051003A00AE03A002500448
:1043D0005004480448044804840284030000000098
:1043E0000000000000000000000038006C006C00BD
:1043F0006C006C006C002C0098071C011A01330142
:1044000033016301E300C308C6093C070000000054
:104410000000000000000C001C001000100008004C
:104420000400000000000000000000000000000088
:10443000000000000000000000000000000000007C
:104440000000000000000004000200018000800065
:10445000400040002000200020002000200020001C
:1044600020004000400080008000000100020004A5
:10447000000000000000020004000800100010000E
:10448000200020004000400040004000400040006C
:10449000400020002000100010000800040002006E
:1044A00000000000000000000000000000004000CC
:1044B000C0004000460C4E0FD001F0015E0F460CCC
:1044C000400040004000000000000000000000002C
:1044D00000000000000000000000000000000000DC
:1044E00040004000400040004000FE0F40004000FF
:1044F00040004000400000000000000000000000FC
:1045000000000000000000000000000000000000AB
:10451000000000000000000000000000000000009B
:104520000000000000000C001C001000100008003B
:104530000400000000000000000000000000000077
:1045400000000000000000000000FE070000000066
:10455000000000000000000000000000000000005B
:10456000000000000000000000000000000000004B
:10457000000000000000000000000000000000003B
:104580000000000000001C001C001C0000000000D7
:10459000000000000000000400060002000300010B
:1045A00000018000800040004000600020002000EA
:1045B00010001000080008000C00040006000200B3
:1045C000000000000000000000000000F000980162
:1045D0000C030C0306060606060606060606060675
:1045E000060606060C030C039801F000000000000C
:1045F00000000000000000000000000040007C00FF
:1046000060006000600060006000600060006000AA
:1046100060006000600060006000FC0300000000BB
:10462000000000000000000000000000F80084010D
:10463000020306030603000300018001C0006000BE
:1046400020001000080204020602FE030000000021
:104650000000000000000000000000007800C6001C
:104660008601860180018001C00070008001000188
:1046700000030003060306038601F80000000000A3
:104680000000000000000000000000008001800128
:10469000C001A001A001900188018801840182016C
:1046A000FE0F8001800180018001E0070000000012
:1046B000000000000000000000000000FC030400F7
:1046C0000400040004000400F4008C01040300034F
:1046D00000030603060382018401F80000000000C5
:1046E000000000000000000000000000E0011803CE
:1046F0000C030C0004000600E60116030E06060675
:104700000606060604060C021803F000000000006E
:10471000000000000000000000000000F8070C0688
:1047200004020401000100018000800040004000FC
:104730004000600060006000600060000000000059
:10474000000000000000000000000000F8010C0361
:104750000606060606060C021C03F000C8010C0340
:1047600006060606060606060C03F0010000000019
:10477000000000000000000000000000F0000C013C
:104780000C03060206060606060606078C067806D1
:104790000006000300030C018C01780000000000FB
:1047A0000000000000000000000000000000000009
:1047B000000000000000E000E000E0000000000059
:1047C000000000000000E000E000E0000000000049
:1047D00000000000000000000000000000000000D9
:1047E0000000000000006000600000000000000009
:1047F0000000000000000000600060004000200099
:104800002000000000000000000000040002000181
:104810008000400020001000080004000800100084
:1048200020004000800000010002000400000000A1
:104830000000000000000000000000000000000078
:10484000000000000000FE07000000000000FE075E
:104850000000000000000000000000000000000058
:10486000000000000000000000000400080010002C
:10487000200040008000000100020004000200014E
:10488000800040002000100008000400000000002C
:10489000000000000000000000000000E003180617
:1048A000040C040C0C0C0C0C0007800140004000B0
:1048B000400000000000E000E000E0000000000018
:1048C00000000000000000000000E00018030C02DF
:1048D000CC0564056605A605B604B604B604B604A0
:1048E000B602E4010C040C021803F0000000000002
:1048F00000000000000000000000000060006000F8
:104900005000D00090009000880088010801F80154
:10491000040304030402020202060F0F0000000059
:10492000000000000000000000000000FE008C03FA
:104930000C030C030C030C038C01FC000C030C0295
:104940000C060C060C060C060C03FE010000000011
:10495000000000000000000000000000E003180359
:104960000C060C04040406000600060006000600FF
:10497000060006040C040C021803F00000000000FE
:104980000000000000000000000000007F008C011B
:104990000C030C030C060C060C060C060C060C068D
:1049A0000C060C060C030C038C017F0000000000B9
:1049B000000000000000000000000000FF030603EC
:1049C00006040604060086008600FE0086008600B7
:1049D00086000600060406040602FF03000000002D
:1049E000000000000000000000000000FF030603BC
:1049F00006040604060086008600FE008600860087
:104A0000860006000600060006001F0000000000E9
:104A1000000000000000000000000000F00018018D
:104A20000C020C0204020600060006000600C60F77
:104A3000060306030C030C031803F000000000003B
:104A40000000000000000000000000000F0F06063C
:104A500006060606060606060606FE0706060606FD
:104A6000060606060606060606060F0F00000000EC
:104A7000000000000000000000000000FC036000D7
:104A80006000600060006000600060006000600026
:104A900060006000600060006000FC030000000037
:104AA000000000000000000000000000F807C00047
:104AB000C000C000C000C000C000C000C000C000F6
:104AC000C000C000C000C000C000C000C60066003A
:104AD0003C0000000000000000000000CF03860141
:104AE000C60046002600160036002E006E00460066
:104AF000C60086008601060106038F07000000003D
:104B00000000000000000000000000001F00060080
:104B10000600060006000600060006000600060065
:104B200006000600060406040602FF03000000005B
:104B300000000000000000000000000007078603DE
:104B400086038E038E034E034E034A035A035A0311
:104B50003A033203320332031203870700000000D6
:104B60000000000000000000000000008E0F0C029A
:104B70001C021C0234023402640264024402C402B5
:104B8000840284038403040304031F020000000062
:104B9000000000000000000000000000F00098018C
:104BA0000C030C02060606060606060606060606A0
:104BB000060606060C020C039801F0000000000037
:104BC000000000000000000000000000FF000603DD
:104BD000060606060606060606068603FE0006000C
:104BE000060006000600060006001F000000000088
:104BF000000000000000000000000000F00098012C
:104C00000C030C020606060606060606060606063F
:104C1000060676064C02CC039801F00080070003DC
:104C2000000000000000000000000000FF0106037B
:104C300006060606060606060603FE004600C60031
:104C4000860086010603060306060F0E000000001C
:104C5000000000000000000000000000F8020C034B
:104C60000602060206000E003C00F800E003800386
:104C700000070206020606060C03F0010000000011
:104C8000000000000000000000000000FE076204B9
:104C90006108610860006000600060006000600002
:104CA00060006000600060006000F801000000002B
:104CB0000000000000000000000000001E070C02C1
:104CC0000C020C020C020C020C020C020C020C0274
:104CD0000C020C020C020C021801F0000000000093
:104CE0000000000000000000000000000F070602A6
:104CF000040104010C010C01880088009800980050
:104D00005000500070003000200020000000000023
:104D1000000000000000000000000000F70E620428
:104D200042044604460464026402E402E4029C0273
:104D30009C0198019801880188008800000000000B
:104D40000000000000000000000000009E070C01B1
:104D5000080118019000B0006000200060006000B1
:104D6000D00090008801080104038E0700000000B5
:104D70000000000000000000000000000F0F06040B
:104D800004020C0208011801B800B00070006000B5
:104D900060006000600060006000F801000000003A
:104DA000000000000000000000000000FC070C02F2
:104DB0000603020180018000400040002000200026
:104DC0001000180008040C040402FE030000000098
:104DD000000000000000E003200020002000200070
:104DE00020002000200020002000200020002000C3
:104DF0002000200020002000200020002000E003F0
:104E00000000000000000000000004000400080092
:104E1000080010001000100020002000400040009A
:104E2000C0008000800000010001000200020002BA
:104E30000004000000007C004000400040004000F2
:104E40004000400040004000400040004000400062
:104E500040004000400040004000400040007C0016
:104E60000000000060009000080100000000000049
:104E70000000000000000000000000000000000032
:104E80000000000000000000000000000000000022
:104E90000000000000000000000000000000000012
:104EA0000000000000000000000000000000000002
:104EB00000000000000000000000000000000000F2
:104EC000FF0F00000000180060000000000000005C
:104ED00000000000000000000000000000000000D2
:104EE00000000000000000000000000000000000C2
:104EF00000000000000000000000000000000000B2
:104F0000000000000000F0010C030C030003E003AC
:104F10001C030E03060306038E0B7C0E000000002C
:104F20000000000000000000000008000E000C005F
:104F30000C000C000C00CC013C031C060C060C06FB
:104F40000C060C060C060C021C03E4010000000019
:104F50000000000000000000000000000000000051
:104F6000000000000000F0008C018C0186010600AA
:104F70000600060006020C020C01F0000000000012
:104F8000000000000000000000000002C003000359
:104F900000030003000378038C030C0306030603DD
:104FA00006030603060304038C07780100000000D3
:104FB00000000000000000000000000000000000F1
:104FC000000000000000E001180308020C060C06B7
:104FD000FC070C000C0018041802E001000000009F
:104FE000000000000000000000000000C003600698
:104FF000300630003000FE0130003000300030005C
:1050000030003000300030003000FC0100000000B3
:105010000000000000000000000000000000000090
:10502000000000000000F007D8068C018C018C0104
:105030009801F8000C00FC00CC03060306038E0365
:10504000F800000000000000000008000E000C0046
:105050000C000C000C00EC011C030C030C030C03F3
:105060000C030C030C030C030C039E070000000050
:105070000000000000000000000000006000600070
:105080000000000040007C006000600060006000E4
:1050900060006000600060006000FC030000000031
:1050A000000000000000000000000000C001C0017E
:1050B000000000000001F0018001800180018001FA
:1050C0008001800180018001800180018001CC008D
:1050D0007C00000000000000000008000E000C0032
:1050E0000C000C000C008C038C008C004C006C003D
:1050F0005C008C008C010C010C039E07000000007A
:105100000000000000000000000040007C00600083
:10511000600060006000600060006000600060008F
:1051200060006000600060006000FC0300000000A0
:10513000000000000000000000000000000000006F
:105140000000000000003707EE06660666066606E9
:1051500066066606660666066606FF0F0000000025
:10516000000000000000000000000000000000003F
:10517000000000000000EE011C030C030C030C03F4
:105180000C030C030C030C030C039E07000000002F
:10519000000000000000000000000000000000000F
:1051A000000000000000F00098010C03060606064F
:1051B0000606060606060C030C03F00000000000BD
:1051C00000000000000000000000000000000000DF
:1051D000000000000000EE011C030C060C060C068B
:1051E0000C060C060C060C031C03EC010C000C0056
:1051F0003E00000000000000000000000000000071
:1052000000000000000078028C030C030603060374
:1052100006030603060304038C037803000300035C
:10522000C0070000000000000000000000000000B7
:105230000000000000009F03580638061800180000
:1052400018001800180018001800FF0000000000E7
:10525000000000000000000000000000000000004E
:10526000000000000000F0031C030C020C023800D8
:10527000F000C003040304038C03FC0100000000E1
:1052800000000000000000000000000000002000FE
:10529000200030003000FE013000300030003000CF
:1052A00030003000300030023002E0010000000029
:1052B00000000000000000000000000000000000EE
:1052C0000000000008028E030C030C030C030C0307
:1052D0000C030C030C030C039C0778010000000076
:1052E00000000000000000000000000000000000BE
:1052F0000000000000001E070C0208010801180150
:105300009000B000B00060006000200000000000CD
:10531000000000000000000000000000000000008D
:10532000000000000000F70E6204460464026402FC
:10533000EC029C019801980198010800000000000F
:10534000000000000000000000000000000000005D
:10535000000000000000BC0718011001B000600050
:105360006000E0009000080108039E0700000000B4
:10537000000000000000000000000000000000002D
:105380000000000000009E070801080108019000CD
:105390009000B00060006000600020002000240049
:1053A0001C000000000000000000000000000000E1
:1053B000000000000000FC018401C4004400600003
:1053C00020003000180208020C03FC01000000005D
:1053D00000000000000000038000800080008000CA
:1053E000800080008000800040002000400080009D
:1053F000800080008000800080008000800000032A
:1054000000004000400040004000400040004000DC
:10541000400040004000400040004000400040008C
:10542000400040004000400040004000400040007C
:105430004000000000000C001000100010001000E0
:10544000100010001000100020004000200010008C
:1054500010001000100010001000100010000C00D0
:10546000000000001C002204C204800300000000B1
:10547000000000000000000000000000000000002C
:10548000000000000000000000000000000000001C
:10549000000000000000000000000000000000000C
:1054A00000000000000000000000000000000000FC
:1054B00000000000000000000000000000000000EC
:1054C00000000000000000000000000000000000DC
:1054D000000000000000000000000000C001C0014A
:1054E000C001C001C001C001C00180008000800077
:1054F00080008000800080000000000000000000AC
:105500008001C003C0038001000000000000000013
:105510000000000000000000E01CE01CF01E700E07
:105520003807180308018400000000000000000094
:10553000000000000000000000000000000000006B
:10554000000000000000000000000000000000005B
:10555000000000000000000000000000000020101B
:105560002010201020102010FE7FFE7F1008100851
:1055700010081008100810081008FE7FFE7F0804AD
:1055800008040804080408040000000000000000EB
:105590000000000000000000000000010001C00742
:1055A0006019103118311839183938017001E001CB
:1055B000C0038007000F001D003900311C311C3171
:1055C0000C310C11180DE007000100010001000072
:1055D00000000000000000000000000000001C109F
:1055E00036186308630C6304630463026302630197
:1055F000361D9C37802280634063406320632063B4
:10560000306310221836081C000000000000000063
:105610000000000000000000000000000000F0009A
:1056200098018C018C018C018C018C00CC007800DD
:10563000183E1C083608320863046304C304C3031D
:10564000834306438E26781C000000000000000003
:1056500000000000000000001C003C003C00300086
:10566000300010000C0006000000000000000000E8
:10567000000000000000000000000000000000002A
:10568000000000000000000000000000000000001A
:105690000000000000000000004000200010000892
:1056A000000C0004000600030003000380018001D9
:1056B00080018001800180018001800100030003DE
:1056C000000300060006000C000800100020004047
:1056D00000000000000000000200040008001000AC
:1056E000300020006000C000C000C00080018001C8
:1056F000800180018001800180018001C000C00024
:10570000C0006000600030001000080004000200CB
:105710000000000000000000000000000000000089
:10572000000000018003800300011C713C79783D7A
:10573000C0070001C007783D3C791C71000180035F
:105740008003800100000000000000000000000055
:105750000000000000000000000000000000000049
:105760000000000000010001000100010001000133
:105770000001FC7F000100010001000100010001A7
:105780000001000000000000000000000000000018
:105790000000000000000000000000000000000009
:1057A00000000000000000000000000000000000F9
:1057B00000000000000000000000000000000000E9
:1057C00000001C003C003C003000300010000C00C9
:1057D00006000000000000000000000000000000C3
:1057E00000000000000000000000000000000000B9
:1057F0000000FE7F0000000000000000000000002C
:105800000000000000000000000000000000000098
:105810000000000000000000000000000000000088
:105820000000000000000000000000000000000078
:105830000000000000000000000000000000000068
:1058400018003C003C0018000000000000000000B0
:105850000000000000000000004000600020003058
:10586000001000180008000C0004000600020003ED
:10587000000180018000C000400060002000300076
:105880001000180008000C000400060002000000D0
:105890000000000000000000000000000000C00741
:1058A000600C30181830183018200C600C600C6038
:1058B0000C600C600C600C600C600C6018201830E0
:1058C00018303018600CC007000000000000000015
:1058D00000000000000000000000000000000001C7
:1058E0008001F80180018001800180018001800138
:1058F00080018001800180018001800180018001A0
:1059000080018001C003F81F0000000000000000BB
:105910000000000000000000000000000000E007A0
:10592000101C0818043004300C300C300030001803
:105930000008000400020001800040002020102028
:1059400008200430FC1FFC1F0000000000000000C5
:105950000000000000000000000000000000E00364
:10596000180E0C0C0C180C180C180018000C000663
:10597000C003000E00180010003000300C300C3056
:105980000C100C18180CE0030000000000000000D0
:105990000000000000000000000000000000000CFB
:1059A000000E000E000F800E800E400E600E200EC6
:1059B000100E100E080E040E040EFE7F000E000ED8
:1059C000000E000E000E000EC07F00000000000060
:1059D0000000000000000000000000000000F03F98
:1059E000F03F10001000100008000800C807280C45
:1059F0001818081000300030003000300C300C3027
:105A000004180418080CF003000000000000000057
:105A10000000000000000000000000000000800FF7
:105A2000C010203010301800180008000C008C0F37
:105A30006C183C301C600C600C600C600C601860D2
:105A4000182030306018C00700000000000000007F
:105A50000000000000000000000000000000F83F0F
:105A6000F83F1C100C0804080404000400020002A3
:105A7000000100010001800080008000C000C00023
:105A8000C000C000C000C000000000000000000016
:105A90000000000000000000000000000000E0071F
:105AA000300C18180C300C300C301C3038187008C2
:105AB000E007B007180E0C1C06380630063006301A
:105AC00006300C18180CE003000000000000000075
:105AD0000000000000000000000000000000E003E3
